{
  "contractName": "DafeisContract",
  "abi": [
    {
      "inputs": [
        {
          "internalType": "string",
          "name": "baseURI",
          "type": "string"
        }
      ],
      "stateMutability": "nonpayable",
      "type": "constructor"
    },
    {
      "anonymous": false,
      "inputs": [
        {
          "indexed": true,
          "internalType": "address",
          "name": "owner",
          "type": "address"
        },
        {
          "indexed": true,
          "internalType": "address",
          "name": "approved",
          "type": "address"
        },
        {
          "indexed": true,
          "internalType": "uint256",
          "name": "tokenId",
          "type": "uint256"
        }
      ],
      "name": "Approval",
      "type": "event"
    },
    {
      "anonymous": false,
      "inputs": [
        {
          "indexed": true,
          "internalType": "address",
          "name": "owner",
          "type": "address"
        },
        {
          "indexed": true,
          "internalType": "address",
          "name": "operator",
          "type": "address"
        },
        {
          "indexed": false,
          "internalType": "bool",
          "name": "approved",
          "type": "bool"
        }
      ],
      "name": "ApprovalForAll",
      "type": "event"
    },
    {
      "anonymous": false,
      "inputs": [
        {
          "indexed": true,
          "internalType": "uint256",
          "name": "id",
          "type": "uint256"
        }
      ],
      "name": "JoinFace",
      "type": "event"
    },
    {
      "anonymous": false,
      "inputs": [
        {
          "indexed": true,
          "internalType": "address",
          "name": "previousOwner",
          "type": "address"
        },
        {
          "indexed": true,
          "internalType": "address",
          "name": "newOwner",
          "type": "address"
        }
      ],
      "name": "OwnershipTransferred",
      "type": "event"
    },
    {
      "anonymous": false,
      "inputs": [
        {
          "indexed": true,
          "internalType": "address",
          "name": "from",
          "type": "address"
        },
        {
          "indexed": true,
          "internalType": "address",
          "name": "to",
          "type": "address"
        },
        {
          "indexed": true,
          "internalType": "uint256",
          "name": "tokenId",
          "type": "uint256"
        }
      ],
      "name": "Transfer",
      "type": "event"
    },
    {
      "inputs": [],
      "name": "MAX_BY_MINT",
      "outputs": [
        {
          "internalType": "uint256",
          "name": "",
          "type": "uint256"
        }
      ],
      "stateMutability": "view",
      "type": "function"
    },
    {
      "inputs": [],
      "name": "MAX_ELEMENTS",
      "outputs": [
        {
          "internalType": "uint256",
          "name": "",
          "type": "uint256"
        }
      ],
      "stateMutability": "view",
      "type": "function"
    },
    {
      "inputs": [],
      "name": "PRICE",
      "outputs": [
        {
          "internalType": "uint256",
          "name": "",
          "type": "uint256"
        }
      ],
      "stateMutability": "view",
      "type": "function"
    },
    {
      "inputs": [
        {
          "internalType": "address",
          "name": "to",
          "type": "address"
        },
        {
          "internalType": "uint256",
          "name": "tokenId",
          "type": "uint256"
        }
      ],
      "name": "approve",
      "outputs": [],
      "stateMutability": "nonpayable",
      "type": "function"
    },
    {
      "inputs": [
        {
          "internalType": "address",
          "name": "owner",
          "type": "address"
        }
      ],
      "name": "balanceOf",
      "outputs": [
        {
          "internalType": "uint256",
          "name": "",
          "type": "uint256"
        }
      ],
      "stateMutability": "view",
      "type": "function"
    },
    {
      "inputs": [],
      "name": "baseTokenURI",
      "outputs": [
        {
          "internalType": "string",
          "name": "",
          "type": "string"
        }
      ],
      "stateMutability": "view",
      "type": "function"
    },
    {
      "inputs": [
        {
          "internalType": "uint256",
          "name": "tokenId",
          "type": "uint256"
        }
      ],
      "name": "burn",
      "outputs": [],
      "stateMutability": "nonpayable",
      "type": "function"
    },
    {
      "inputs": [],
      "name": "creatorAddress",
      "outputs": [
        {
          "internalType": "address",
          "name": "",
          "type": "address"
        }
      ],
      "stateMutability": "view",
      "type": "function"
    },
    {
      "inputs": [],
      "name": "devAddress",
      "outputs": [
        {
          "internalType": "address",
          "name": "",
          "type": "address"
        }
      ],
      "stateMutability": "view",
      "type": "function"
    },
    {
      "inputs": [
        {
          "internalType": "uint256",
          "name": "tokenId",
          "type": "uint256"
        }
      ],
      "name": "getApproved",
      "outputs": [
        {
          "internalType": "address",
          "name": "",
          "type": "address"
        }
      ],
      "stateMutability": "view",
      "type": "function"
    },
    {
      "inputs": [
        {
          "internalType": "address",
          "name": "owner",
          "type": "address"
        },
        {
          "internalType": "address",
          "name": "operator",
          "type": "address"
        }
      ],
      "name": "isApprovedForAll",
      "outputs": [
        {
          "internalType": "bool",
          "name": "",
          "type": "bool"
        }
      ],
      "stateMutability": "view",
      "type": "function"
    },
    {
      "inputs": [],
      "name": "name",
      "outputs": [
        {
          "internalType": "string",
          "name": "",
          "type": "string"
        }
      ],
      "stateMutability": "view",
      "type": "function"
    },
    {
      "inputs": [],
      "name": "owner",
      "outputs": [
        {
          "internalType": "address",
          "name": "",
          "type": "address"
        }
      ],
      "stateMutability": "view",
      "type": "function"
    },
    {
      "inputs": [
        {
          "internalType": "uint256",
          "name": "tokenId",
          "type": "uint256"
        }
      ],
      "name": "ownerOf",
      "outputs": [
        {
          "internalType": "address",
          "name": "",
          "type": "address"
        }
      ],
      "stateMutability": "view",
      "type": "function"
    },
    {
      "inputs": [],
      "name": "renounceOwnership",
      "outputs": [],
      "stateMutability": "nonpayable",
      "type": "function"
    },
    {
      "inputs": [
        {
          "internalType": "address",
          "name": "from",
          "type": "address"
        },
        {
          "internalType": "address",
          "name": "to",
          "type": "address"
        },
        {
          "internalType": "uint256",
          "name": "tokenId",
          "type": "uint256"
        }
      ],
      "name": "safeTransferFrom",
      "outputs": [],
      "stateMutability": "nonpayable",
      "type": "function"
    },
    {
      "inputs": [
        {
          "internalType": "address",
          "name": "from",
          "type": "address"
        },
        {
          "internalType": "address",
          "name": "to",
          "type": "address"
        },
        {
          "internalType": "uint256",
          "name": "tokenId",
          "type": "uint256"
        },
        {
          "internalType": "bytes",
          "name": "_data",
          "type": "bytes"
        }
      ],
      "name": "safeTransferFrom",
      "outputs": [],
      "stateMutability": "nonpayable",
      "type": "function"
    },
    {
      "inputs": [
        {
          "internalType": "address",
          "name": "operator",
          "type": "address"
        },
        {
          "internalType": "bool",
          "name": "approved",
          "type": "bool"
        }
      ],
      "name": "setApprovalForAll",
      "outputs": [],
      "stateMutability": "nonpayable",
      "type": "function"
    },
    {
      "inputs": [],
      "name": "symbol",
      "outputs": [
        {
          "internalType": "string",
          "name": "",
          "type": "string"
        }
      ],
      "stateMutability": "view",
      "type": "function"
    },
    {
      "inputs": [
        {
          "internalType": "uint256",
          "name": "index",
          "type": "uint256"
        }
      ],
      "name": "tokenByIndex",
      "outputs": [
        {
          "internalType": "uint256",
          "name": "",
          "type": "uint256"
        }
      ],
      "stateMutability": "view",
      "type": "function"
    },
    {
      "inputs": [
        {
          "internalType": "address",
          "name": "owner",
          "type": "address"
        },
        {
          "internalType": "uint256",
          "name": "index",
          "type": "uint256"
        }
      ],
      "name": "tokenOfOwnerByIndex",
      "outputs": [
        {
          "internalType": "uint256",
          "name": "",
          "type": "uint256"
        }
      ],
      "stateMutability": "view",
      "type": "function"
    },
    {
      "inputs": [
        {
          "internalType": "uint256",
          "name": "tokenId",
          "type": "uint256"
        }
      ],
      "name": "tokenURI",
      "outputs": [
        {
          "internalType": "string",
          "name": "",
          "type": "string"
        }
      ],
      "stateMutability": "view",
      "type": "function"
    },
    {
      "inputs": [],
      "name": "totalSupply",
      "outputs": [
        {
          "internalType": "uint256",
          "name": "",
          "type": "uint256"
        }
      ],
      "stateMutability": "view",
      "type": "function"
    },
    {
      "inputs": [
        {
          "internalType": "address",
          "name": "from",
          "type": "address"
        },
        {
          "internalType": "address",
          "name": "to",
          "type": "address"
        },
        {
          "internalType": "uint256",
          "name": "tokenId",
          "type": "uint256"
        }
      ],
      "name": "transferFrom",
      "outputs": [],
      "stateMutability": "nonpayable",
      "type": "function"
    },
    {
      "inputs": [
        {
          "internalType": "address",
          "name": "newOwner",
          "type": "address"
        }
      ],
      "name": "transferOwnership",
      "outputs": [],
      "stateMutability": "nonpayable",
      "type": "function"
    },
    {
      "inputs": [],
      "name": "totalMint",
      "outputs": [
        {
          "internalType": "uint256",
          "name": "",
          "type": "uint256"
        }
      ],
      "stateMutability": "view",
      "type": "function"
    },
    {
      "inputs": [
        {
          "internalType": "address",
          "name": "_to",
          "type": "address"
        },
        {
          "internalType": "uint256",
          "name": "_count",
          "type": "uint256"
        }
      ],
      "name": "mint",
      "outputs": [],
      "stateMutability": "payable",
      "type": "function"
    },
    {
      "inputs": [
        {
          "internalType": "uint256",
          "name": "_count",
          "type": "uint256"
        }
      ],
      "name": "price",
      "outputs": [
        {
          "internalType": "uint256",
          "name": "",
          "type": "uint256"
        }
      ],
      "stateMutability": "pure",
      "type": "function"
    },
    {
      "inputs": [
        {
          "internalType": "string",
          "name": "baseURI",
          "type": "string"
        }
      ],
      "name": "setBaseURI",
      "outputs": [],
      "stateMutability": "nonpayable",
      "type": "function"
    },
    {
      "inputs": [
        {
          "internalType": "address",
          "name": "_owner",
          "type": "address"
        }
      ],
      "name": "walletOfOwner",
      "outputs": [
        {
          "internalType": "uint256[]",
          "name": "",
          "type": "uint256[]"
        }
      ],
      "stateMutability": "view",
      "type": "function"
    },
    {
      "inputs": [
        {
          "internalType": "bool",
          "name": "val",
          "type": "bool"
        }
      ],
      "name": "pause",
      "outputs": [],
      "stateMutability": "nonpayable",
      "type": "function"
    },
    {
      "inputs": [],
      "name": "withdrawAll",
      "outputs": [],
      "stateMutability": "payable",
      "type": "function"
    },
    {
      "inputs": [
        {
          "internalType": "bytes4",
          "name": "interfaceId",
          "type": "bytes4"
        }
      ],
      "name": "supportsInterface",
      "outputs": [
        {
          "internalType": "bool",
          "name": "",
          "type": "bool"
        }
      ],
      "stateMutability": "view",
      "type": "function"
    },
    {
      "inputs": [
        {
          "internalType": "uint256",
          "name": "_count",
          "type": "uint256"
        }
      ],
      "name": "reserve",
      "outputs": [],
      "stateMutability": "nonpayable",
      "type": "function"
    }
  ],
  "bytecode": "0x60806040523480156200001157600080fd5b5060405162002bb938038062002bb983398101604081905262000034916200029d565b6040805180820182526009815268111851995a5cd3919560ba1b60208083019182528351808501909452600384526222232760e91b9084015281519192916200008091600091620001f7565b50805162000096906001906020840190620001f7565b505050620000b3620000ad620000d160201b60201c565b620000d5565b620000be8162000127565b620000ca60016200018f565b50620003f4565b3390565b600a80546001600160a01b038381166001600160a01b0319831681179093556040519116919082907f8be0079c531659141344cd1fd0a4f28419497f9722a3daafe3b4186f6b6457e090600090a35050565b62000131620000d1565b6001600160a01b031662000144620001e8565b6001600160a01b031614620001765760405162461bcd60e51b81526004016200016d906200036c565b60405180910390fd5b80516200018b90600c906020840190620001f7565b5050565b62000199620000d1565b6001600160a01b0316620001ac620001e8565b6001600160a01b031614620001d55760405162461bcd60e51b81526004016200016d906200036c565b600d805460ff1916911515919091179055565b600a546001600160a01b031690565b8280546200020590620003a1565b90600052602060002090601f01602090048101928262000229576000855562000274565b82601f106200024457805160ff191683800117855562000274565b8280016001018555821562000274579182015b828111156200027457825182559160200191906001019062000257565b506200028292915062000286565b5090565b5b8082111562000282576000815560010162000287565b60006020808385031215620002b0578182fd5b82516001600160401b0380821115620002c7578384fd5b818501915085601f830112620002db578384fd5b815181811115620002f057620002f0620003de565b604051601f8201601f1916810185018381118282101715620003165762000316620003de565b60405281815283820185018810156200032d578586fd5b8592505b8183101562000350578383018501518184018601529184019162000331565b818311156200036157858583830101525b979650505050505050565b6020808252818101527f4f776e61626c653a2063616c6c6572206973206e6f7420746865206f776e6572604082015260600190565b600281046001821680620003b657607f821691505b60208210811415620003d857634e487b7160e01b600052602260045260246000fd5b50919050565b634e487b7160e01b600052604160045260246000fd5b6127b580620004046000396000f3fe6080604052600436106101f95760003560e01c806359a7715a1161010d5780638da5cb5b116100a0578063c87b56dd1161006f578063c87b56dd14610557578063d547cfb714610577578063e927fc5c1461058c578063e985e9c5146105a1578063f2fde38b146105c1576101f9565b80638da5cb5b146104ed57806395d89b4114610502578063a22cb46514610517578063b88d4fde14610537576101f9565b8063819b25ba116100dc578063819b25ba1461049b578063853828b6146104bb5780638ad5de28146104c35780638d859f3e146104d8576101f9565b806359a7715a146104315780636352211e1461044657806370a0823114610466578063715018a614610486576101f9565b80632f745c591161019057806342842e0e1161015f57806342842e0e1461038457806342966c68146103a4578063438b6300146103c45780634f6ccce7146103f157806355f804b314610411576101f9565b80632f745c59146103275780633502a716146103475780633ad10ef61461035c57806340c10f1914610371576101f9565b8063095ea7b3116101cc578063095ea7b3146102a557806318160ddd146102c557806323b872dd146102e757806326a49e3714610307576101f9565b806301ffc9a7146101fe57806302329a291461023457806306fdde0314610256578063081812fc14610278575b600080fd5b34801561020a57600080fd5b5061021e610219366004611e24565b6105e1565b60405161022b9190611fad565b60405180910390f35b34801561024057600080fd5b5061025461024f366004611e0a565b6105f4565b005b34801561026257600080fd5b5061026b61064f565b60405161022b9190611fb8565b34801561028457600080fd5b50610298610293366004611ea2565b6106e1565b60405161022b9190611f18565b3480156102b157600080fd5b506102546102c0366004611de1565b610724565b3480156102d157600080fd5b506102da6107bc565b60405161022b9190612626565b3480156102f357600080fd5b50610254610302366004611d04565b6107c2565b34801561031357600080fd5b506102da610322366004611ea2565b6107fa565b34801561033357600080fd5b506102da610342366004611de1565b61080d565b34801561035357600080fd5b506102da61085f565b34801561036857600080fd5b50610298610865565b61025461037f366004611de1565b61087d565b34801561039057600080fd5b5061025461039f366004611d04565b6109be565b3480156103b057600080fd5b506102546103bf366004611ea2565b6109d9565b3480156103d057600080fd5b506103e46103df366004611cb8565b610a0c565b60405161022b9190611f69565b3480156103fd57600080fd5b506102da61040c366004611ea2565b610aca565b34801561041d57600080fd5b5061025461042c366004611e5c565b610b25565b34801561043d57600080fd5b506102da610b7b565b34801561045257600080fd5b50610298610461366004611ea2565b610b8a565b34801561047257600080fd5b506102da610481366004611cb8565b610bbf565b34801561049257600080fd5b50610254610c03565b3480156104a757600080fd5b506102546104b6366004611ea2565b610c4e565b610254610cf0565b3480156104cf57600080fd5b506102da610d8b565b3480156104e457600080fd5b506102da610d90565b3480156104f957600080fd5b50610298610d9b565b34801561050e57600080fd5b5061026b610daa565b34801561052357600080fd5b50610254610532366004611db8565b610db9565b34801561054357600080fd5b50610254610552366004611d3f565b610e87565b34801561056357600080fd5b5061026b610572366004611ea2565b610ec0565b34801561058357600080fd5b5061026b610f43565b34801561059857600080fd5b50610298610fd1565b3480156105ad57600080fd5b5061021e6105bc366004611cd2565b610fe9565b3480156105cd57600080fd5b506102546105dc366004611cb8565b611017565b60006105ec82611085565b90505b919050565b6105fc6110aa565b6001600160a01b031661060d610d9b565b6001600160a01b03161461063c5760405162461bcd60e51b8152600401610633906123b4565b60405180910390fd5b600d805460ff1916911515919091179055565b60606000805461065e906126bd565b80601f016020809104026020016040519081016040528092919081815260200182805461068a906126bd565b80156106d75780601f106106ac576101008083540402835291602001916106d7565b820191906000526020600020905b8154815290600101906020018083116106ba57829003601f168201915b5050505050905090565b60006106ec826110ae565b6107085760405162461bcd60e51b815260040161063390612368565b506000908152600460205260409020546001600160a01b031690565b600061072f82610b8a565b9050806001600160a01b0316836001600160a01b031614156107635760405162461bcd60e51b8152600401610633906124ac565b806001600160a01b03166107756110aa565b6001600160a01b031614806107915750610791816105bc6110aa565b6107ad5760405162461bcd60e51b815260040161063390612221565b6107b783836110cb565b505050565b60085490565b6107d36107cd6110aa565b82611139565b6107ef5760405162461bcd60e51b815260040161063390612517565b6107b78383836111be565b60006105ec66753d533d968000836112eb565b600061081883610bbf565b82106108365760405162461bcd60e51b815260040161063390611ff3565b506001600160a01b03919091166000908152600660209081526040808320938352929052205490565b61271081565b73cbcc84766f2950cf867f42d766c43fb2d2ba325681565b6127106108886112f7565b11156108a65760405162461bcd60e51b815260040161063390612346565b6108ae610d9b565b6001600160a01b03166108bf6110aa565b6001600160a01b0316146108f057600d5460ff16156108f05760405162461bcd60e51b8152600401610633906121f7565b60006108fa6112f7565b9050612710610909838361262f565b11156109275760405162461bcd60e51b815260040161063390612188565b6127108111156109495760405162461bcd60e51b815260040161063390612346565b601482111561096a5760405162461bcd60e51b815260040161063390611fcb565b610973826107fa565b3410156109925760405162461bcd60e51b815260040161063390612481565b60005b828110156109b8576109a684611303565b806109b0816126f8565b915050610995565b50505050565b6107b783838360405180602001604052806000815250610e87565b6109e46107cd6110aa565b610a005760405162461bcd60e51b8152600401610633906125d6565b610a0981611365565b50565b60606000610a1983610bbf565b905060008167ffffffffffffffff811115610a4457634e487b7160e01b600052604160045260246000fd5b604051908082528060200260200182016040528015610a6d578160200160208202803683370190505b50905060005b82811015610ac257610a85858261080d565b828281518110610aa557634e487b7160e01b600052603260045260246000fd5b602090810291909101015280610aba816126f8565b915050610a73565b509392505050565b6000610ad46107bc565b8210610af25760405162461bcd60e51b815260040161063390612568565b60088281548110610b1357634e487b7160e01b600052603260045260246000fd5b90600052602060002001549050919050565b610b2d6110aa565b6001600160a01b0316610b3e610d9b565b6001600160a01b031614610b645760405162461bcd60e51b8152600401610633906123b4565b8051610b7790600c906020840190611b88565b5050565b6000610b856112f7565b905090565b6000818152600260205260408120546001600160a01b0316806105ec5760405162461bcd60e51b8152600401610633906122c8565b60006001600160a01b038216610be75760405162461bcd60e51b81526004016106339061227e565b506001600160a01b031660009081526003602052604090205490565b610c0b6110aa565b6001600160a01b0316610c1c610d9b565b6001600160a01b031614610c425760405162461bcd60e51b8152600401610633906123b4565b610c4c600061140c565b565b610c566110aa565b6001600160a01b0316610c67610d9b565b6001600160a01b031614610c8d5760405162461bcd60e51b8152600401610633906123b4565b6000610c976112f7565b90506064610ca5838361262f565b1115610cc35760405162461bcd60e51b8152600401610633906125b4565b60005b828110156107b757610cde610cd96110aa565b611303565b80610ce8816126f8565b915050610cc6565b610cf86110aa565b6001600160a01b0316610d09610d9b565b6001600160a01b031614610d2f5760405162461bcd60e51b8152600401610633906123b4565b4780610d3a57600080fd5b610d6d73cbcc84766f2950cf867f42d766c43fb2d2ba3256610d686064610d628560196112eb565b9061145e565b61146a565b610a09736add24eb2bca5696b0a9d10425f8a58f0d73fc284761146a565b601481565b66753d533d96800081565b600a546001600160a01b031690565b60606001805461065e906126bd565b610dc16110aa565b6001600160a01b0316826001600160a01b03161415610df25760405162461bcd60e51b815260040161063390612151565b8060056000610dff6110aa565b6001600160a01b03908116825260208083019390935260409182016000908120918716808252919093529120805460ff191692151592909217909155610e436110aa565b6001600160a01b03167f17307eab39ab6107e8899845ad3d59bd9653f200f220920489ca2b5937696c3183604051610e7b9190611fad565b60405180910390a35050565b610e98610e926110aa565b83611139565b610eb45760405162461bcd60e51b815260040161063390612517565b6109b8848484846114e6565b6060610ecb826110ae565b610ee75760405162461bcd60e51b815260040161063390612432565b6000610ef1611519565b90506000815111610f115760405180602001604052806000815250610f3c565b80610f1b84611528565b604051602001610f2c929190611ee6565b6040516020818303038152906040525b9392505050565b600c8054610f50906126bd565b80601f0160208091040260200160405190810160405280929190818152602001828054610f7c906126bd565b8015610fc95780601f10610f9e57610100808354040283529160200191610fc9565b820191906000526020600020905b815481529060010190602001808311610fac57829003601f168201915b505050505081565b736add24eb2bca5696b0a9d10425f8a58f0d73fc2881565b6001600160a01b03918216600090815260056020908152604080832093909416825291909152205460ff1690565b61101f6110aa565b6001600160a01b0316611030610d9b565b6001600160a01b0316146110565760405162461bcd60e51b8152600401610633906123b4565b6001600160a01b03811661107c5760405162461bcd60e51b815260040161063390612090565b610a098161140c565b60006001600160e01b0319821663780e9d6360e01b14806105ec57506105ec82611643565b3390565b6000908152600260205260409020546001600160a01b0316151590565b600081815260046020526040902080546001600160a01b0319166001600160a01b038416908117909155819061110082610b8a565b6001600160a01b03167f8c5be1e5ebec7d5bd14f71427d1e84f3dd0314c0f7b2291e5b200ac8c7c3b92560405160405180910390a45050565b6000611144826110ae565b6111605760405162461bcd60e51b8152600401610633906121ab565b600061116b83610b8a565b9050806001600160a01b0316846001600160a01b031614806111a65750836001600160a01b031661119b846106e1565b6001600160a01b0316145b806111b657506111b68185610fe9565b949350505050565b826001600160a01b03166111d182610b8a565b6001600160a01b0316146111f75760405162461bcd60e51b8152600401610633906123e9565b6001600160a01b03821661121d5760405162461bcd60e51b81526004016106339061210d565b611228838383611683565b6112336000826110cb565b6001600160a01b038316600090815260036020526040812080546001929061125c90849061267a565b90915550506001600160a01b038216600090815260036020526040812080546001929061128a90849061262f565b909155505060008181526002602052604080822080546001600160a01b0319166001600160a01b0386811691821790925591518493918716917fddf252ad1be2c89b69c2b068fc378daa952ba7f163c4a11628f55a4df523b3ef91a4505050565b6000610f3c828461265b565b6000610b85600b61168e565b600061130d6112f7565b9050611319600b611692565b61132d8261132883600161262f565b61169b565b61133881600161262f565b6040517f7e03ce21e5e5f3325fe1aad377e7be64024730acb11945f08a3d7c010379c10e90600090a25050565b600061137082610b8a565b905061137e81600084611683565b6113896000836110cb565b6001600160a01b03811660009081526003602052604081208054600192906113b290849061267a565b909155505060008281526002602052604080822080546001600160a01b0319169055518391906001600160a01b038416907fddf252ad1be2c89b69c2b068fc378daa952ba7f163c4a11628f55a4df523b3ef908390a45050565b600a80546001600160a01b038381166001600160a01b0319831681179093556040519116919082907f8be0079c531659141344cd1fd0a4f28419497f9722a3daafe3b4186f6b6457e090600090a35050565b6000610f3c8284612647565b6000826001600160a01b03168260405161148390611f15565b60006040518083038185875af1925050503d80600081146114c0576040519150601f19603f3d011682016040523d82523d6000602084013e6114c5565b606091505b50509050806107b75760405162461bcd60e51b8152600401610633906124ed565b6114f18484846111be565b6114fd848484846116b5565b6109b85760405162461bcd60e51b81526004016106339061203e565b6060600c805461065e906126bd565b60608161154d57506040805180820190915260018152600360fc1b60208201526105ef565b8160005b81156115775780611561816126f8565b91506115709050600a83612647565b9150611551565b60008167ffffffffffffffff8111156115a057634e487b7160e01b600052604160045260246000fd5b6040519080825280601f01601f1916602001820160405280156115ca576020820181803683370190505b5090505b84156111b6576115df60018361267a565b91506115ec600a86612713565b6115f790603061262f565b60f81b81838151811061161a57634e487b7160e01b600052603260045260246000fd5b60200101906001600160f81b031916908160001a90535061163c600a86612647565b94506115ce565b60006001600160e01b031982166380ac58cd60e01b148061167457506001600160e01b03198216635b5e139f60e01b145b806105ec57506105ec826117d0565b6107b78383836117e9565b5490565b80546001019055565b610b77828260405180602001604052806000815250611872565b60006116c9846001600160a01b03166118a5565b156117c557836001600160a01b031663150b7a026116e56110aa565b8786866040518563ffffffff1660e01b81526004016117079493929190611f2c565b602060405180830381600087803b15801561172157600080fd5b505af1925050508015611751575060408051601f3d908101601f1916820190925261174e91810190611e40565b60015b6117ab573d80801561177f576040519150601f19603f3d011682016040523d82523d6000602084013e611784565b606091505b5080516117a35760405162461bcd60e51b81526004016106339061203e565b805181602001fd5b6001600160e01b031916630a85bd0160e11b1490506111b6565b506001949350505050565b6001600160e01b031981166301ffc9a760e01b14919050565b6117f48383836107b7565b6001600160a01b0383166118105761180b816118ab565b611833565b816001600160a01b0316836001600160a01b0316146118335761183383826118ef565b6001600160a01b03821661184f5761184a8161198c565b6107b7565b826001600160a01b0316826001600160a01b0316146107b7576107b78282611a65565b61187c8383611aa9565b61188960008484846116b5565b6107b75760405162461bcd60e51b81526004016106339061203e565b3b151590565b600880546000838152600960205260408120829055600182018355919091527ff3f7a9fe364faab93b216da50a3214154f22a0a2b415b23a84c8169e8b636ee30155565b600060016118fc84610bbf565b611906919061267a565b600083815260076020526040902054909150808214611959576001600160a01b03841660009081526006602090815260408083208584528252808320548484528184208190558352600790915290208190555b5060009182526007602090815260408084208490556001600160a01b039094168352600681528383209183525290812055565b60085460009061199e9060019061267a565b600083815260096020526040812054600880549394509092849081106119d457634e487b7160e01b600052603260045260246000fd5b906000526020600020015490508060088381548110611a0357634e487b7160e01b600052603260045260246000fd5b6000918252602080832090910192909255828152600990915260408082208490558582528120556008805480611a4957634e487b7160e01b600052603160045260246000fd5b6001900381819060005260206000200160009055905550505050565b6000611a7083610bbf565b6001600160a01b039093166000908152600660209081526040808320868452825280832085905593825260079052919091209190915550565b6001600160a01b038216611acf5760405162461bcd60e51b815260040161063390612311565b611ad8816110ae565b15611af55760405162461bcd60e51b8152600401610633906120d6565b611b0160008383611683565b6001600160a01b0382166000908152600360205260408120805460019290611b2a90849061262f565b909155505060008181526002602052604080822080546001600160a01b0319166001600160a01b03861690811790915590518392907fddf252ad1be2c89b69c2b068fc378daa952ba7f163c4a11628f55a4df523b3ef908290a45050565b828054611b94906126bd565b90600052602060002090601f016020900481019282611bb65760008555611bfc565b82601f10611bcf57805160ff1916838001178555611bfc565b82800160010185558215611bfc579182015b82811115611bfc578251825591602001919060010190611be1565b50611c08929150611c0c565b5090565b5b80821115611c085760008155600101611c0d565b600067ffffffffffffffff80841115611c3c57611c3c612753565b604051601f8501601f191681016020018281118282101715611c6057611c60612753565b604052848152915081838501861015611c7857600080fd5b8484602083013760006020868301015250509392505050565b80356001600160a01b03811681146105ef57600080fd5b803580151581146105ef57600080fd5b600060208284031215611cc9578081fd5b610f3c82611c91565b60008060408385031215611ce4578081fd5b611ced83611c91565b9150611cfb60208401611c91565b90509250929050565b600080600060608486031215611d18578081fd5b611d2184611c91565b9250611d2f60208501611c91565b9150604084013590509250925092565b60008060008060808587031215611d54578081fd5b611d5d85611c91565b9350611d6b60208601611c91565b925060408501359150606085013567ffffffffffffffff811115611d8d578182fd5b8501601f81018713611d9d578182fd5b611dac87823560208401611c21565b91505092959194509250565b60008060408385031215611dca578182fd5b611dd383611c91565b9150611cfb60208401611ca8565b60008060408385031215611df3578182fd5b611dfc83611c91565b946020939093013593505050565b600060208284031215611e1b578081fd5b610f3c82611ca8565b600060208284031215611e35578081fd5b8135610f3c81612769565b600060208284031215611e51578081fd5b8151610f3c81612769565b600060208284031215611e6d578081fd5b813567ffffffffffffffff811115611e83578182fd5b8201601f81018413611e93578182fd5b6111b684823560208401611c21565b600060208284031215611eb3578081fd5b5035919050565b60008151808452611ed2816020860160208601612691565b601f01601f19169290920160200192915050565b60008351611ef8818460208801612691565b835190830190611f0c818360208801612691565b01949350505050565b90565b6001600160a01b0391909116815260200190565b6001600160a01b0385811682528416602082015260408101839052608060608201819052600090611f5f90830184611eba565b9695505050505050565b6020808252825182820181905260009190848201906040850190845b81811015611fa157835183529284019291840191600101611f85565b50909695505050505050565b901515815260200190565b600060208252610f3c6020830184611eba565b6020808252600e908201526d22bc31b2b2b23990373ab6b132b960911b604082015260600190565b6020808252602b908201527f455243373231456e756d657261626c653a206f776e657220696e646578206f7560408201526a74206f6620626f756e647360a81b606082015260800190565b60208082526032908201527f4552433732313a207472616e7366657220746f206e6f6e20455243373231526560408201527131b2b4bb32b91034b6b83632b6b2b73a32b960711b606082015260800190565b60208082526026908201527f4f776e61626c653a206e6577206f776e657220697320746865207a65726f206160408201526564647265737360d01b606082015260800190565b6020808252601c908201527f4552433732313a20746f6b656e20616c7265616479206d696e74656400000000604082015260600190565b60208082526024908201527f4552433732313a207472616e7366657220746f20746865207a65726f206164646040820152637265737360e01b606082015260800190565b60208082526019908201527f4552433732313a20617070726f766520746f2063616c6c657200000000000000604082015260600190565b60208082526009908201526813585e081b1a5b5a5d60ba1b604082015260600190565b6020808252602c908201527f4552433732313a206f70657261746f7220717565727920666f72206e6f6e657860408201526b34b9ba32b73a103a37b5b2b760a11b606082015260800190565b60208082526010908201526f14185d5cd8589b194e881c185d5cd95960821b604082015260600190565b60208082526038908201527f4552433732313a20617070726f76652063616c6c6572206973206e6f74206f7760408201527f6e6572206e6f7220617070726f76656420666f7220616c6c0000000000000000606082015260800190565b6020808252602a908201527f4552433732313a2062616c616e636520717565727920666f7220746865207a65604082015269726f206164647265737360b01b606082015260800190565b60208082526029908201527f4552433732313a206f776e657220717565727920666f72206e6f6e657869737460408201526832b73a103a37b5b2b760b91b606082015260800190565b6020808252818101527f4552433732313a206d696e7420746f20746865207a65726f2061646472657373604082015260600190565b60208082526008908201526714d85b1948195b9960c21b604082015260600190565b6020808252602c908201527f4552433732313a20617070726f76656420717565727920666f72206e6f6e657860408201526b34b9ba32b73a103a37b5b2b760a11b606082015260800190565b6020808252818101527f4f776e61626c653a2063616c6c6572206973206e6f7420746865206f776e6572604082015260600190565b60208082526029908201527f4552433732313a207472616e73666572206f6620746f6b656e2074686174206960408201526839903737ba1037bbb760b91b606082015260800190565b6020808252602f908201527f4552433732314d657461646174613a2055524920717565727920666f72206e6f60408201526e3732bc34b9ba32b73a103a37b5b2b760891b606082015260800190565b60208082526011908201527056616c75652062656c6f7720707269636560781b604082015260600190565b60208082526021908201527f4552433732313a20617070726f76616c20746f2063757272656e74206f776e656040820152603960f91b606082015260800190565b60208082526010908201526f2a3930b739b332b9103330b4b632b21760811b604082015260600190565b60208082526031908201527f4552433732313a207472616e736665722063616c6c6572206973206e6f74206f6040820152701ddb995c881b9bdc88185c1c1c9bdd9959607a1b606082015260800190565b6020808252602c908201527f455243373231456e756d657261626c653a20676c6f62616c20696e646578206f60408201526b7574206f6620626f756e647360a01b606082015260800190565b602080825260089082015267115e18d95959195960c21b604082015260600190565b60208082526030908201527f4552433732314275726e61626c653a2063616c6c6572206973206e6f74206f7760408201526f1b995c881b9bdc88185c1c1c9bdd995960821b606082015260800190565b90815260200190565b6000821982111561264257612642612727565b500190565b6000826126565761265661273d565b500490565b600081600019048311821515161561267557612675612727565b500290565b60008282101561268c5761268c612727565b500390565b60005b838110156126ac578181015183820152602001612694565b838111156109b85750506000910152565b6002810460018216806126d157607f821691505b602082108114156126f257634e487b7160e01b600052602260045260246000fd5b50919050565b600060001982141561270c5761270c612727565b5060010190565b6000826127225761272261273d565b500690565b634e487b7160e01b600052601160045260246000fd5b634e487b7160e01b600052601260045260246000fd5b634e487b7160e01b600052604160045260246000fd5b6001600160e01b031981168114610a0957600080fdfea2646970667358221220add43889f198272685d6c37ef1180e21ad157f30aa7d08eb75802b231c7e208c64736f6c63430008000033",
  "immutableReferences": {},
  "source": "// SPDX-License-Identifier: MIT\r\npragma solidity ^0.8.0;\r\n\r\nimport \"./ERC721.sol\";\r\nimport \"./ERC721Enumerable.sol\";\r\nimport \"./ERC721Burnable.sol\";\r\nimport \"./Ownable.sol\";\r\nimport \"./SafeMath.sol\";\r\nimport \"./Counters.sol\";\r\n\r\ncontract DafeisContract is ERC721Enumerable, Ownable, ERC721Burnable {\r\n    using SafeMath for uint256;\r\n    using Counters for Counters.Counter;\r\n\r\n    Counters.Counter private _tokenIdTracker;\r\n\r\n    uint256 public constant MAX_ELEMENTS = 10000;\r\n    uint256 public constant PRICE = 33 * 10**15;\r\n    uint256 public constant MAX_BY_MINT = 20;\r\n    address public constant creatorAddress = 0x6aDD24eb2BcA5696B0a9d10425f8A58F0d73Fc28;\r\n    address public constant devAddress = 0xcBCc84766F2950CF867f42D766c43fB2D2Ba3256;\r\n    string public baseTokenURI;\r\n    bool private _pause;\r\n\r\n    event JoinFace(uint256 indexed id);\r\n\r\n    constructor(string memory baseURI) ERC721(\"DaFeisNFT\", \"DFN\") {\r\n        setBaseURI(baseURI);\r\n        pause(true);\r\n    }\r\n\r\n    modifier saleIsOpen {\r\n        require(_totalSupply() <= MAX_ELEMENTS, \"Sale end\");\r\n        if (_msgSender() != owner()) {\r\n            require(!_pause, \"Pausable: paused\");\r\n        }\r\n        _;\r\n    }\r\n    function _totalSupply() internal view returns (uint) {\r\n        return _tokenIdTracker.current();\r\n    }\r\n    function totalMint() public view returns (uint256) {\r\n        return _totalSupply();\r\n    }\r\n    function mint(address _to, uint256 _count) public payable saleIsOpen {\r\n        uint256 total = _totalSupply();\r\n        require(total + _count <= MAX_ELEMENTS, \"Max limit\");\r\n        require(total <= MAX_ELEMENTS, \"Sale end\");\r\n        require(_count <= MAX_BY_MINT, \"Exceeds number\");\r\n        require(msg.value >= price(_count), \"Value below price\");\r\n\r\n        for (uint256 i = 0; i < _count; i++) {\r\n            _mintAnElement(_to);\r\n        }\r\n    }\r\n    function _mintAnElement(address _to) private {\r\n        uint id = _totalSupply();\r\n        _tokenIdTracker.increment();\r\n        _safeMint(_to, id + 1);\r\n        emit JoinFace(id + 1);\r\n    }\r\n    function price(uint256 _count) public pure returns (uint256) {\r\n        return PRICE.mul(_count);\r\n    }\r\n\r\n    function _baseURI() internal view virtual override returns (string memory) {\r\n        return baseTokenURI;\r\n    }\r\n\r\n    function setBaseURI(string memory baseURI) public onlyOwner {\r\n        baseTokenURI = baseURI;\r\n    }\r\n\r\n    function walletOfOwner(address _owner) external view returns (uint256[] memory) {\r\n        uint256 tokenCount = balanceOf(_owner);\r\n\r\n        uint256[] memory tokensId = new uint256[](tokenCount);\r\n        for (uint256 i = 0; i < tokenCount; i++) {\r\n            tokensId[i] = tokenOfOwnerByIndex(_owner, i);\r\n        }\r\n\r\n        return tokensId;\r\n    }\r\n\r\n    function pause(bool val) public onlyOwner {\r\n        _pause = val;\r\n    }\r\n\r\n    function withdrawAll() public payable onlyOwner {\r\n        uint256 balance = address(this).balance;\r\n        require(balance > 0);\r\n        _widthdraw(devAddress, balance.mul(25).div(100));\r\n        _widthdraw(creatorAddress, address(this).balance);\r\n    }\r\n\r\n    function _widthdraw(address _address, uint256 _amount) private {\r\n        (bool success, ) = _address.call{value: _amount}(\"\");\r\n        require(success, \"Transfer failed.\");\r\n    }\r\n\r\n    function _beforeTokenTransfer(\r\n        address from,\r\n        address to,\r\n        uint256 tokenId\r\n    ) internal virtual override(ERC721, ERC721Enumerable) {\r\n        super._beforeTokenTransfer(from, to, tokenId);\r\n    }\r\n\r\n    function supportsInterface(bytes4 interfaceId) public view virtual override(ERC721, ERC721Enumerable) returns (bool) {\r\n        return super.supportsInterface(interfaceId);\r\n    }\r\n\r\n    function reserve(uint256 _count) public onlyOwner {\r\n        uint256 total = _totalSupply();\r\n        require(total + _count <= 100, \"Exceeded\");\r\n        for (uint256 i = 0; i < _count; i++) {\r\n            _mintAnElement(_msgSender());\r\n        }\r\n    }\r\n    \r\n}",
  "sourcePath": "D:\\AAAAAAA_JGI\\D\\Website\\Current_Work\\CryptoProject\\Sources\\DafeisContract\\contracts\\DafeisNFT.sol",
  "compiler": {
    "name": "solc",
    "version": "0.8.0+commit.c7dfd78e.Emscripten.clang"
  },
  "schemaVersion": "3.4.2",
  "updatedAt": "2021-09-08T16:13:12.673Z",
  "devdoc": {
    "kind": "dev",
    "methods": {
      "approve(address,uint256)": {
        "details": "See {IERC721-approve}."
      },
      "balanceOf(address)": {
        "details": "See {IERC721-balanceOf}."
      },
      "burn(uint256)": {
        "details": "Burns `tokenId`. See {ERC721-_burn}. Requirements: - The caller must own `tokenId` or be an approved operator."
      },
      "getApproved(uint256)": {
        "details": "See {IERC721-getApproved}."
      },
      "isApprovedForAll(address,address)": {
        "details": "See {IERC721-isApprovedForAll}."
      },
      "name()": {
        "details": "See {IERC721Metadata-name}."
      },
      "owner()": {
        "details": "Returns the address of the current owner."
      },
      "ownerOf(uint256)": {
        "details": "See {IERC721-ownerOf}."
      },
      "renounceOwnership()": {
        "details": "Leaves the contract without owner. It will not be possible to call `onlyOwner` functions anymore. Can only be called by the current owner. NOTE: Renouncing ownership will leave the contract without an owner, thereby removing any functionality that is only available to the owner."
      },
      "safeTransferFrom(address,address,uint256)": {
        "details": "See {IERC721-safeTransferFrom}."
      },
      "safeTransferFrom(address,address,uint256,bytes)": {
        "details": "See {IERC721-safeTransferFrom}."
      },
      "setApprovalForAll(address,bool)": {
        "details": "See {IERC721-setApprovalForAll}."
      },
      "symbol()": {
        "details": "See {IERC721Metadata-symbol}."
      },
      "tokenByIndex(uint256)": {
        "details": "See {IERC721Enumerable-tokenByIndex}."
      },
      "tokenOfOwnerByIndex(address,uint256)": {
        "details": "See {IERC721Enumerable-tokenOfOwnerByIndex}."
      },
      "tokenURI(uint256)": {
        "details": "See {IERC721Metadata-tokenURI}."
      },
      "totalSupply()": {
        "details": "See {IERC721Enumerable-totalSupply}."
      },
      "transferFrom(address,address,uint256)": {
        "details": "See {IERC721-transferFrom}."
      },
      "transferOwnership(address)": {
        "details": "Transfers ownership of the contract to a new account (`newOwner`). Can only be called by the current owner."
      }
    },
    "version": 1
  },
  "userdoc": {
    "kind": "user",
    "methods": {},
    "version": 1
  }
}