{
  "contractName": "SnowGlobe",
  "abi": [
    {
      "inputs": [
        {
          "internalType": "string",
          "name": "baseURI",
          "type": "string"
        }
      ],
      "stateMutability": "nonpayable",
      "type": "constructor"
    },
    {
      "anonymous": false,
      "inputs": [
        {
          "indexed": true,
          "internalType": "address",
          "name": "owner",
          "type": "address"
        },
        {
          "indexed": true,
          "internalType": "address",
          "name": "approved",
          "type": "address"
        },
        {
          "indexed": true,
          "internalType": "uint256",
          "name": "tokenId",
          "type": "uint256"
        }
      ],
      "name": "Approval",
      "type": "event"
    },
    {
      "anonymous": false,
      "inputs": [
        {
          "indexed": true,
          "internalType": "address",
          "name": "owner",
          "type": "address"
        },
        {
          "indexed": true,
          "internalType": "address",
          "name": "operator",
          "type": "address"
        },
        {
          "indexed": false,
          "internalType": "bool",
          "name": "approved",
          "type": "bool"
        }
      ],
      "name": "ApprovalForAll",
      "type": "event"
    },
    {
      "anonymous": false,
      "inputs": [
        {
          "indexed": true,
          "internalType": "uint256",
          "name": "id",
          "type": "uint256"
        }
      ],
      "name": "JoinGang",
      "type": "event"
    },
    {
      "anonymous": false,
      "inputs": [
        {
          "indexed": true,
          "internalType": "address",
          "name": "previousOwner",
          "type": "address"
        },
        {
          "indexed": true,
          "internalType": "address",
          "name": "newOwner",
          "type": "address"
        }
      ],
      "name": "OwnershipTransferred",
      "type": "event"
    },
    {
      "anonymous": false,
      "inputs": [
        {
          "indexed": true,
          "internalType": "address",
          "name": "from",
          "type": "address"
        },
        {
          "indexed": true,
          "internalType": "address",
          "name": "to",
          "type": "address"
        },
        {
          "indexed": true,
          "internalType": "uint256",
          "name": "tokenId",
          "type": "uint256"
        }
      ],
      "name": "Transfer",
      "type": "event"
    },
    {
      "inputs": [],
      "name": "MAX_BY_MINT",
      "outputs": [
        {
          "internalType": "uint256",
          "name": "",
          "type": "uint256"
        }
      ],
      "stateMutability": "view",
      "type": "function"
    },
    {
      "inputs": [],
      "name": "MAX_ELEMENTS",
      "outputs": [
        {
          "internalType": "uint256",
          "name": "",
          "type": "uint256"
        }
      ],
      "stateMutability": "view",
      "type": "function"
    },
    {
      "inputs": [],
      "name": "PRICE",
      "outputs": [
        {
          "internalType": "uint256",
          "name": "",
          "type": "uint256"
        }
      ],
      "stateMutability": "view",
      "type": "function"
    },
    {
      "inputs": [
        {
          "internalType": "address",
          "name": "to",
          "type": "address"
        },
        {
          "internalType": "uint256",
          "name": "tokenId",
          "type": "uint256"
        }
      ],
      "name": "approve",
      "outputs": [],
      "stateMutability": "nonpayable",
      "type": "function"
    },
    {
      "inputs": [
        {
          "internalType": "address",
          "name": "owner",
          "type": "address"
        }
      ],
      "name": "balanceOf",
      "outputs": [
        {
          "internalType": "uint256",
          "name": "",
          "type": "uint256"
        }
      ],
      "stateMutability": "view",
      "type": "function"
    },
    {
      "inputs": [],
      "name": "baseTokenURI",
      "outputs": [
        {
          "internalType": "string",
          "name": "",
          "type": "string"
        }
      ],
      "stateMutability": "view",
      "type": "function"
    },
    {
      "inputs": [
        {
          "internalType": "uint256",
          "name": "tokenId",
          "type": "uint256"
        }
      ],
      "name": "burn",
      "outputs": [],
      "stateMutability": "nonpayable",
      "type": "function"
    },
    {
      "inputs": [],
      "name": "creatorAddress",
      "outputs": [
        {
          "internalType": "address",
          "name": "",
          "type": "address"
        }
      ],
      "stateMutability": "view",
      "type": "function"
    },
    {
      "inputs": [],
      "name": "devAddress",
      "outputs": [
        {
          "internalType": "address",
          "name": "",
          "type": "address"
        }
      ],
      "stateMutability": "view",
      "type": "function"
    },
    {
      "inputs": [
        {
          "internalType": "uint256",
          "name": "tokenId",
          "type": "uint256"
        }
      ],
      "name": "getApproved",
      "outputs": [
        {
          "internalType": "address",
          "name": "",
          "type": "address"
        }
      ],
      "stateMutability": "view",
      "type": "function"
    },
    {
      "inputs": [
        {
          "internalType": "address",
          "name": "owner",
          "type": "address"
        },
        {
          "internalType": "address",
          "name": "operator",
          "type": "address"
        }
      ],
      "name": "isApprovedForAll",
      "outputs": [
        {
          "internalType": "bool",
          "name": "",
          "type": "bool"
        }
      ],
      "stateMutability": "view",
      "type": "function"
    },
    {
      "inputs": [],
      "name": "name",
      "outputs": [
        {
          "internalType": "string",
          "name": "",
          "type": "string"
        }
      ],
      "stateMutability": "view",
      "type": "function"
    },
    {
      "inputs": [],
      "name": "owner",
      "outputs": [
        {
          "internalType": "address",
          "name": "",
          "type": "address"
        }
      ],
      "stateMutability": "view",
      "type": "function"
    },
    {
      "inputs": [
        {
          "internalType": "uint256",
          "name": "tokenId",
          "type": "uint256"
        }
      ],
      "name": "ownerOf",
      "outputs": [
        {
          "internalType": "address",
          "name": "",
          "type": "address"
        }
      ],
      "stateMutability": "view",
      "type": "function"
    },
    {
      "inputs": [],
      "name": "renounceOwnership",
      "outputs": [],
      "stateMutability": "nonpayable",
      "type": "function"
    },
    {
      "inputs": [
        {
          "internalType": "address",
          "name": "from",
          "type": "address"
        },
        {
          "internalType": "address",
          "name": "to",
          "type": "address"
        },
        {
          "internalType": "uint256",
          "name": "tokenId",
          "type": "uint256"
        }
      ],
      "name": "safeTransferFrom",
      "outputs": [],
      "stateMutability": "nonpayable",
      "type": "function"
    },
    {
      "inputs": [
        {
          "internalType": "address",
          "name": "from",
          "type": "address"
        },
        {
          "internalType": "address",
          "name": "to",
          "type": "address"
        },
        {
          "internalType": "uint256",
          "name": "tokenId",
          "type": "uint256"
        },
        {
          "internalType": "bytes",
          "name": "_data",
          "type": "bytes"
        }
      ],
      "name": "safeTransferFrom",
      "outputs": [],
      "stateMutability": "nonpayable",
      "type": "function"
    },
    {
      "inputs": [
        {
          "internalType": "address",
          "name": "operator",
          "type": "address"
        },
        {
          "internalType": "bool",
          "name": "approved",
          "type": "bool"
        }
      ],
      "name": "setApprovalForAll",
      "outputs": [],
      "stateMutability": "nonpayable",
      "type": "function"
    },
    {
      "inputs": [],
      "name": "symbol",
      "outputs": [
        {
          "internalType": "string",
          "name": "",
          "type": "string"
        }
      ],
      "stateMutability": "view",
      "type": "function"
    },
    {
      "inputs": [
        {
          "internalType": "uint256",
          "name": "index",
          "type": "uint256"
        }
      ],
      "name": "tokenByIndex",
      "outputs": [
        {
          "internalType": "uint256",
          "name": "",
          "type": "uint256"
        }
      ],
      "stateMutability": "view",
      "type": "function"
    },
    {
      "inputs": [
        {
          "internalType": "address",
          "name": "owner",
          "type": "address"
        },
        {
          "internalType": "uint256",
          "name": "index",
          "type": "uint256"
        }
      ],
      "name": "tokenOfOwnerByIndex",
      "outputs": [
        {
          "internalType": "uint256",
          "name": "",
          "type": "uint256"
        }
      ],
      "stateMutability": "view",
      "type": "function"
    },
    {
      "inputs": [
        {
          "internalType": "uint256",
          "name": "tokenId",
          "type": "uint256"
        }
      ],
      "name": "tokenURI",
      "outputs": [
        {
          "internalType": "string",
          "name": "",
          "type": "string"
        }
      ],
      "stateMutability": "view",
      "type": "function"
    },
    {
      "inputs": [],
      "name": "totalSupply",
      "outputs": [
        {
          "internalType": "uint256",
          "name": "",
          "type": "uint256"
        }
      ],
      "stateMutability": "view",
      "type": "function"
    },
    {
      "inputs": [
        {
          "internalType": "address",
          "name": "from",
          "type": "address"
        },
        {
          "internalType": "address",
          "name": "to",
          "type": "address"
        },
        {
          "internalType": "uint256",
          "name": "tokenId",
          "type": "uint256"
        }
      ],
      "name": "transferFrom",
      "outputs": [],
      "stateMutability": "nonpayable",
      "type": "function"
    },
    {
      "inputs": [
        {
          "internalType": "address",
          "name": "newOwner",
          "type": "address"
        }
      ],
      "name": "transferOwnership",
      "outputs": [],
      "stateMutability": "nonpayable",
      "type": "function"
    },
    {
      "inputs": [],
      "name": "totalMint",
      "outputs": [
        {
          "internalType": "uint256",
          "name": "",
          "type": "uint256"
        }
      ],
      "stateMutability": "view",
      "type": "function"
    },
    {
      "inputs": [
        {
          "internalType": "address",
          "name": "_to",
          "type": "address"
        },
        {
          "internalType": "uint256",
          "name": "_count",
          "type": "uint256"
        }
      ],
      "name": "mint",
      "outputs": [],
      "stateMutability": "payable",
      "type": "function"
    },
    {
      "inputs": [
        {
          "internalType": "uint256",
          "name": "_count",
          "type": "uint256"
        }
      ],
      "name": "price",
      "outputs": [
        {
          "internalType": "uint256",
          "name": "",
          "type": "uint256"
        }
      ],
      "stateMutability": "pure",
      "type": "function"
    },
    {
      "inputs": [
        {
          "internalType": "string",
          "name": "baseURI",
          "type": "string"
        }
      ],
      "name": "setBaseURI",
      "outputs": [],
      "stateMutability": "nonpayable",
      "type": "function"
    },
    {
      "inputs": [
        {
          "internalType": "address",
          "name": "_owner",
          "type": "address"
        }
      ],
      "name": "walletOfOwner",
      "outputs": [
        {
          "internalType": "uint256[]",
          "name": "",
          "type": "uint256[]"
        }
      ],
      "stateMutability": "view",
      "type": "function"
    },
    {
      "inputs": [
        {
          "internalType": "bool",
          "name": "val",
          "type": "bool"
        }
      ],
      "name": "pause",
      "outputs": [],
      "stateMutability": "nonpayable",
      "type": "function"
    },
    {
      "inputs": [],
      "name": "withdrawAll",
      "outputs": [],
      "stateMutability": "payable",
      "type": "function"
    },
    {
      "inputs": [
        {
          "internalType": "bytes4",
          "name": "interfaceId",
          "type": "bytes4"
        }
      ],
      "name": "supportsInterface",
      "outputs": [
        {
          "internalType": "bool",
          "name": "",
          "type": "bool"
        }
      ],
      "stateMutability": "view",
      "type": "function"
    },
    {
      "inputs": [
        {
          "internalType": "uint256",
          "name": "_count",
          "type": "uint256"
        }
      ],
      "name": "reserve",
      "outputs": [],
      "stateMutability": "nonpayable",
      "type": "function"
    }
  ],
  "bytecode": "0x60806040523480156200001157600080fd5b5060405162002b8838038062002b88833981016040819052620000349162000297565b6040805180820182526004815263534e4f5760e01b602080830191825283518085019094526002845261534760f01b9084015281519192916200007a91600091620001f1565b50805162000090906001906020840190620001f1565b505050620000ad620000a7620000cb60201b60201c565b620000cf565b620000b88162000121565b620000c4600162000189565b50620003ee565b3390565b600a80546001600160a01b038381166001600160a01b0319831681179093556040519116919082907f8be0079c531659141344cd1fd0a4f28419497f9722a3daafe3b4186f6b6457e090600090a35050565b6200012b620000cb565b6001600160a01b03166200013e620001e2565b6001600160a01b031614620001705760405162461bcd60e51b8152600401620001679062000366565b60405180910390fd5b80516200018590600c906020840190620001f1565b5050565b62000193620000cb565b6001600160a01b0316620001a6620001e2565b6001600160a01b031614620001cf5760405162461bcd60e51b8152600401620001679062000366565b600d805460ff1916911515919091179055565b600a546001600160a01b031690565b828054620001ff906200039b565b90600052602060002090601f0160209004810192826200022357600085556200026e565b82601f106200023e57805160ff19168380011785556200026e565b828001600101855582156200026e579182015b828111156200026e57825182559160200191906001019062000251565b506200027c92915062000280565b5090565b5b808211156200027c576000815560010162000281565b60006020808385031215620002aa578182fd5b82516001600160401b0380821115620002c1578384fd5b818501915085601f830112620002d5578384fd5b815181811115620002ea57620002ea620003d8565b604051601f8201601f1916810185018381118282101715620003105762000310620003d8565b604052818152838201850188101562000327578586fd5b8592505b818310156200034a57838301850151818401860152918401916200032b565b818311156200035b57858583830101525b979650505050505050565b6020808252818101527f4f776e61626c653a2063616c6c6572206973206e6f7420746865206f776e6572604082015260600190565b600281046001821680620003b057607f821691505b60208210811415620003d257634e487b7160e01b600052602260045260246000fd5b50919050565b634e487b7160e01b600052604160045260246000fd5b61278a80620003fe6000396000f3fe6080604052600436106101f95760003560e01c806359a7715a1161010d5780638da5cb5b116100a0578063c87b56dd1161006f578063c87b56dd14610557578063d547cfb714610577578063e927fc5c1461035c578063e985e9c51461058c578063f2fde38b146105ac576101f9565b80638da5cb5b146104ed57806395d89b4114610502578063a22cb46514610517578063b88d4fde14610537576101f9565b8063819b25ba116100dc578063819b25ba1461049b578063853828b6146104bb5780638ad5de28146104c35780638d859f3e146104d8576101f9565b806359a7715a146104315780636352211e1461044657806370a0823114610466578063715018a614610486576101f9565b80632f745c591161019057806342842e0e1161015f57806342842e0e1461038457806342966c68146103a4578063438b6300146103c45780634f6ccce7146103f157806355f804b314610411576101f9565b80632f745c59146103275780633502a716146103475780633ad10ef61461035c57806340c10f1914610371576101f9565b8063095ea7b3116101cc578063095ea7b3146102a557806318160ddd146102c557806323b872dd146102e757806326a49e3714610307576101f9565b806301ffc9a7146101fe57806302329a291461023457806306fdde0314610256578063081812fc14610278575b600080fd5b34801561020a57600080fd5b5061021e610219366004611df9565b6105cc565b60405161022b9190611f82565b60405180910390f35b34801561024057600080fd5b5061025461024f366004611ddf565b6105df565b005b34801561026257600080fd5b5061026b61063a565b60405161022b9190611f8d565b34801561028457600080fd5b50610298610293366004611e77565b6106cc565b60405161022b9190611eed565b3480156102b157600080fd5b506102546102c0366004611db6565b61070f565b3480156102d157600080fd5b506102da6107a7565b60405161022b91906125fb565b3480156102f357600080fd5b50610254610302366004611cd9565b6107ad565b34801561031357600080fd5b506102da610322366004611e77565b6107e5565b34801561033357600080fd5b506102da610342366004611db6565b6107f9565b34801561035357600080fd5b506102da61084b565b34801561036857600080fd5b50610298610851565b61025461037f366004611db6565b610869565b34801561039057600080fd5b5061025461039f366004611cd9565b6109aa565b3480156103b057600080fd5b506102546103bf366004611e77565b6109c5565b3480156103d057600080fd5b506103e46103df366004611c8d565b6109f8565b60405161022b9190611f3e565b3480156103fd57600080fd5b506102da61040c366004611e77565b610ab6565b34801561041d57600080fd5b5061025461042c366004611e31565b610b11565b34801561043d57600080fd5b506102da610b67565b34801561045257600080fd5b50610298610461366004611e77565b610b76565b34801561047257600080fd5b506102da610481366004611c8d565b610bab565b34801561049257600080fd5b50610254610bef565b3480156104a757600080fd5b506102546104b6366004611e77565b610c3a565b610254610cdc565b3480156104cf57600080fd5b506102da610d77565b3480156104e457600080fd5b506102da610d7c565b3480156104f957600080fd5b50610298610d88565b34801561050e57600080fd5b5061026b610d97565b34801561052357600080fd5b50610254610532366004611d8d565b610da6565b34801561054357600080fd5b50610254610552366004611d14565b610e74565b34801561056357600080fd5b5061026b610572366004611e77565b610ead565b34801561058357600080fd5b5061026b610f30565b34801561059857600080fd5b5061021e6105a7366004611ca7565b610fbe565b3480156105b857600080fd5b506102546105c7366004611c8d565b610fec565b60006105d78261105a565b90505b919050565b6105e761107f565b6001600160a01b03166105f8610d88565b6001600160a01b0316146106275760405162461bcd60e51b815260040161061e90612389565b60405180910390fd5b600d805460ff1916911515919091179055565b60606000805461064990612692565b80601f016020809104026020016040519081016040528092919081815260200182805461067590612692565b80156106c25780601f10610697576101008083540402835291602001916106c2565b820191906000526020600020905b8154815290600101906020018083116106a557829003601f168201915b5050505050905090565b60006106d782611083565b6106f35760405162461bcd60e51b815260040161061e9061233d565b506000908152600460205260409020546001600160a01b031690565b600061071a82610b76565b9050806001600160a01b0316836001600160a01b0316141561074e5760405162461bcd60e51b815260040161061e90612481565b806001600160a01b031661076061107f565b6001600160a01b0316148061077c575061077c816105a761107f565b6107985760405162461bcd60e51b815260040161061e906121f6565b6107a283836110a0565b505050565b60085490565b6107be6107b861107f565b8261110e565b6107da5760405162461bcd60e51b815260040161061e906124ec565b6107a2838383611193565b60006105d767013fbe85edc90000836112c0565b600061080483610bab565b82106108225760405162461bcd60e51b815260040161061e90611fc8565b506001600160a01b03919091166000908152600660209081526040808320938352929052205490565b611ea081565b73101c53f64fe67ff8d88c52bd48080caf1f43ab4181565b611ea06108746112cc565b11156108925760405162461bcd60e51b815260040161061e9061231b565b61089a610d88565b6001600160a01b03166108ab61107f565b6001600160a01b0316146108dc57600d5460ff16156108dc5760405162461bcd60e51b815260040161061e906121cc565b60006108e66112cc565b9050611ea06108f58383612604565b11156109135760405162461bcd60e51b815260040161061e9061215d565b611ea08111156109355760405162461bcd60e51b815260040161061e9061231b565b600f8211156109565760405162461bcd60e51b815260040161061e90611fa0565b61095f826107e5565b34101561097e5760405162461bcd60e51b815260040161061e90612456565b60005b828110156109a457610992846112d8565b8061099c816126cd565b915050610981565b50505050565b6107a283838360405180602001604052806000815250610e74565b6109d06107b861107f565b6109ec5760405162461bcd60e51b815260040161061e906125ab565b6109f58161133a565b50565b60606000610a0583610bab565b905060008167ffffffffffffffff811115610a3057634e487b7160e01b600052604160045260246000fd5b604051908082528060200260200182016040528015610a59578160200160208202803683370190505b50905060005b82811015610aae57610a7185826107f9565b828281518110610a9157634e487b7160e01b600052603260045260246000fd5b602090810291909101015280610aa6816126cd565b915050610a5f565b509392505050565b6000610ac06107a7565b8210610ade5760405162461bcd60e51b815260040161061e9061253d565b60088281548110610aff57634e487b7160e01b600052603260045260246000fd5b90600052602060002001549050919050565b610b1961107f565b6001600160a01b0316610b2a610d88565b6001600160a01b031614610b505760405162461bcd60e51b815260040161061e90612389565b8051610b6390600c906020840190611b5d565b5050565b6000610b716112cc565b905090565b6000818152600260205260408120546001600160a01b0316806105d75760405162461bcd60e51b815260040161061e9061229d565b60006001600160a01b038216610bd35760405162461bcd60e51b815260040161061e90612253565b506001600160a01b031660009081526003602052604090205490565b610bf761107f565b6001600160a01b0316610c08610d88565b6001600160a01b031614610c2e5760405162461bcd60e51b815260040161061e90612389565b610c3860006113e1565b565b610c4261107f565b6001600160a01b0316610c53610d88565b6001600160a01b031614610c795760405162461bcd60e51b815260040161061e90612389565b6000610c836112cc565b90506064610c918383612604565b1115610caf5760405162461bcd60e51b815260040161061e90612589565b60005b828110156107a257610cca610cc561107f565b6112d8565b80610cd4816126cd565b915050610cb2565b610ce461107f565b6001600160a01b0316610cf5610d88565b6001600160a01b031614610d1b5760405162461bcd60e51b815260040161061e90612389565b4780610d2657600080fd5b610d5973101c53f64fe67ff8d88c52bd48080caf1f43ab41610d546064610d4e8560196112c0565b90611433565b61143f565b6109f573101c53f64fe67ff8d88c52bd48080caf1f43ab414761143f565b600f81565b67013fbe85edc9000081565b600a546001600160a01b031690565b60606001805461064990612692565b610dae61107f565b6001600160a01b0316826001600160a01b03161415610ddf5760405162461bcd60e51b815260040161061e90612126565b8060056000610dec61107f565b6001600160a01b03908116825260208083019390935260409182016000908120918716808252919093529120805460ff191692151592909217909155610e3061107f565b6001600160a01b03167f17307eab39ab6107e8899845ad3d59bd9653f200f220920489ca2b5937696c3183604051610e689190611f82565b60405180910390a35050565b610e85610e7f61107f565b8361110e565b610ea15760405162461bcd60e51b815260040161061e906124ec565b6109a4848484846114bb565b6060610eb882611083565b610ed45760405162461bcd60e51b815260040161061e90612407565b6000610ede6114ee565b90506000815111610efe5760405180602001604052806000815250610f29565b80610f08846114fd565b604051602001610f19929190611ebb565b6040516020818303038152906040525b9392505050565b600c8054610f3d90612692565b80601f0160208091040260200160405190810160405280929190818152602001828054610f6990612692565b8015610fb65780601f10610f8b57610100808354040283529160200191610fb6565b820191906000526020600020905b815481529060010190602001808311610f9957829003601f168201915b505050505081565b6001600160a01b03918216600090815260056020908152604080832093909416825291909152205460ff1690565b610ff461107f565b6001600160a01b0316611005610d88565b6001600160a01b03161461102b5760405162461bcd60e51b815260040161061e90612389565b6001600160a01b0381166110515760405162461bcd60e51b815260040161061e90612065565b6109f5816113e1565b60006001600160e01b0319821663780e9d6360e01b14806105d757506105d782611618565b3390565b6000908152600260205260409020546001600160a01b0316151590565b600081815260046020526040902080546001600160a01b0319166001600160a01b03841690811790915581906110d582610b76565b6001600160a01b03167f8c5be1e5ebec7d5bd14f71427d1e84f3dd0314c0f7b2291e5b200ac8c7c3b92560405160405180910390a45050565b600061111982611083565b6111355760405162461bcd60e51b815260040161061e90612180565b600061114083610b76565b9050806001600160a01b0316846001600160a01b0316148061117b5750836001600160a01b0316611170846106cc565b6001600160a01b0316145b8061118b575061118b8185610fbe565b949350505050565b826001600160a01b03166111a682610b76565b6001600160a01b0316146111cc5760405162461bcd60e51b815260040161061e906123be565b6001600160a01b0382166111f25760405162461bcd60e51b815260040161061e906120e2565b6111fd838383611658565b6112086000826110a0565b6001600160a01b038316600090815260036020526040812080546001929061123190849061264f565b90915550506001600160a01b038216600090815260036020526040812080546001929061125f908490612604565b909155505060008181526002602052604080822080546001600160a01b0319166001600160a01b0386811691821790925591518493918716917fddf252ad1be2c89b69c2b068fc378daa952ba7f163c4a11628f55a4df523b3ef91a4505050565b6000610f298284612630565b6000610b71600b611663565b60006112e26112cc565b90506112ee600b611667565b611302826112fd836001612604565b611670565b61130d816001612604565b6040517f03b1c9b32562094329652d498e9050eee8ec111908984c08387b58027efdd5e490600090a25050565b600061134582610b76565b905061135381600084611658565b61135e6000836110a0565b6001600160a01b038116600090815260036020526040812080546001929061138790849061264f565b909155505060008281526002602052604080822080546001600160a01b0319169055518391906001600160a01b038416907fddf252ad1be2c89b69c2b068fc378daa952ba7f163c4a11628f55a4df523b3ef908390a45050565b600a80546001600160a01b038381166001600160a01b0319831681179093556040519116919082907f8be0079c531659141344cd1fd0a4f28419497f9722a3daafe3b4186f6b6457e090600090a35050565b6000610f29828461261c565b6000826001600160a01b03168260405161145890611eea565b60006040518083038185875af1925050503d8060008114611495576040519150601f19603f3d011682016040523d82523d6000602084013e61149a565b606091505b50509050806107a25760405162461bcd60e51b815260040161061e906124c2565b6114c6848484611193565b6114d28484848461168a565b6109a45760405162461bcd60e51b815260040161061e90612013565b6060600c805461064990612692565b60608161152257506040805180820190915260018152600360fc1b60208201526105da565b8160005b811561154c5780611536816126cd565b91506115459050600a8361261c565b9150611526565b60008167ffffffffffffffff81111561157557634e487b7160e01b600052604160045260246000fd5b6040519080825280601f01601f19166020018201604052801561159f576020820181803683370190505b5090505b841561118b576115b460018361264f565b91506115c1600a866126e8565b6115cc906030612604565b60f81b8183815181106115ef57634e487b7160e01b600052603260045260246000fd5b60200101906001600160f81b031916908160001a905350611611600a8661261c565b94506115a3565b60006001600160e01b031982166380ac58cd60e01b148061164957506001600160e01b03198216635b5e139f60e01b145b806105d757506105d7826117a5565b6107a28383836117be565b5490565b80546001019055565b610b63828260405180602001604052806000815250611847565b600061169e846001600160a01b031661187a565b1561179a57836001600160a01b031663150b7a026116ba61107f565b8786866040518563ffffffff1660e01b81526004016116dc9493929190611f01565b602060405180830381600087803b1580156116f657600080fd5b505af1925050508015611726575060408051601f3d908101601f1916820190925261172391810190611e15565b60015b611780573d808015611754576040519150601f19603f3d011682016040523d82523d6000602084013e611759565b606091505b5080516117785760405162461bcd60e51b815260040161061e90612013565b805181602001fd5b6001600160e01b031916630a85bd0160e11b14905061118b565b506001949350505050565b6001600160e01b031981166301ffc9a760e01b14919050565b6117c98383836107a2565b6001600160a01b0383166117e5576117e081611880565b611808565b816001600160a01b0316836001600160a01b0316146118085761180883826118c4565b6001600160a01b0382166118245761181f81611961565b6107a2565b826001600160a01b0316826001600160a01b0316146107a2576107a28282611a3a565b6118518383611a7e565b61185e600084848461168a565b6107a25760405162461bcd60e51b815260040161061e90612013565b3b151590565b600880546000838152600960205260408120829055600182018355919091527ff3f7a9fe364faab93b216da50a3214154f22a0a2b415b23a84c8169e8b636ee30155565b600060016118d184610bab565b6118db919061264f565b60008381526007602052604090205490915080821461192e576001600160a01b03841660009081526006602090815260408083208584528252808320548484528184208190558352600790915290208190555b5060009182526007602090815260408084208490556001600160a01b039094168352600681528383209183525290812055565b6008546000906119739060019061264f565b600083815260096020526040812054600880549394509092849081106119a957634e487b7160e01b600052603260045260246000fd5b9060005260206000200154905080600883815481106119d857634e487b7160e01b600052603260045260246000fd5b6000918252602080832090910192909255828152600990915260408082208490558582528120556008805480611a1e57634e487b7160e01b600052603160045260246000fd5b6001900381819060005260206000200160009055905550505050565b6000611a4583610bab565b6001600160a01b039093166000908152600660209081526040808320868452825280832085905593825260079052919091209190915550565b6001600160a01b038216611aa45760405162461bcd60e51b815260040161061e906122e6565b611aad81611083565b15611aca5760405162461bcd60e51b815260040161061e906120ab565b611ad660008383611658565b6001600160a01b0382166000908152600360205260408120805460019290611aff908490612604565b909155505060008181526002602052604080822080546001600160a01b0319166001600160a01b03861690811790915590518392907fddf252ad1be2c89b69c2b068fc378daa952ba7f163c4a11628f55a4df523b3ef908290a45050565b828054611b6990612692565b90600052602060002090601f016020900481019282611b8b5760008555611bd1565b82601f10611ba457805160ff1916838001178555611bd1565b82800160010185558215611bd1579182015b82811115611bd1578251825591602001919060010190611bb6565b50611bdd929150611be1565b5090565b5b80821115611bdd5760008155600101611be2565b600067ffffffffffffffff80841115611c1157611c11612728565b604051601f8501601f191681016020018281118282101715611c3557611c35612728565b604052848152915081838501861015611c4d57600080fd5b8484602083013760006020868301015250509392505050565b80356001600160a01b03811681146105da57600080fd5b803580151581146105da57600080fd5b600060208284031215611c9e578081fd5b610f2982611c66565b60008060408385031215611cb9578081fd5b611cc283611c66565b9150611cd060208401611c66565b90509250929050565b600080600060608486031215611ced578081fd5b611cf684611c66565b9250611d0460208501611c66565b9150604084013590509250925092565b60008060008060808587031215611d29578081fd5b611d3285611c66565b9350611d4060208601611c66565b925060408501359150606085013567ffffffffffffffff811115611d62578182fd5b8501601f81018713611d72578182fd5b611d8187823560208401611bf6565b91505092959194509250565b60008060408385031215611d9f578182fd5b611da883611c66565b9150611cd060208401611c7d565b60008060408385031215611dc8578182fd5b611dd183611c66565b946020939093013593505050565b600060208284031215611df0578081fd5b610f2982611c7d565b600060208284031215611e0a578081fd5b8135610f298161273e565b600060208284031215611e26578081fd5b8151610f298161273e565b600060208284031215611e42578081fd5b813567ffffffffffffffff811115611e58578182fd5b8201601f81018413611e68578182fd5b61118b84823560208401611bf6565b600060208284031215611e88578081fd5b5035919050565b60008151808452611ea7816020860160208601612666565b601f01601f19169290920160200192915050565b60008351611ecd818460208801612666565b835190830190611ee1818360208801612666565b01949350505050565b90565b6001600160a01b0391909116815260200190565b6001600160a01b0385811682528416602082015260408101839052608060608201819052600090611f3490830184611e8f565b9695505050505050565b6020808252825182820181905260009190848201906040850190845b81811015611f7657835183529284019291840191600101611f5a565b50909695505050505050565b901515815260200190565b600060208252610f296020830184611e8f565b6020808252600e908201526d22bc31b2b2b23990373ab6b132b960911b604082015260600190565b6020808252602b908201527f455243373231456e756d657261626c653a206f776e657220696e646578206f7560408201526a74206f6620626f756e647360a81b606082015260800190565b60208082526032908201527f4552433732313a207472616e7366657220746f206e6f6e20455243373231526560408201527131b2b4bb32b91034b6b83632b6b2b73a32b960711b606082015260800190565b60208082526026908201527f4f776e61626c653a206e6577206f776e657220697320746865207a65726f206160408201526564647265737360d01b606082015260800190565b6020808252601c908201527f4552433732313a20746f6b656e20616c7265616479206d696e74656400000000604082015260600190565b60208082526024908201527f4552433732313a207472616e7366657220746f20746865207a65726f206164646040820152637265737360e01b606082015260800190565b60208082526019908201527f4552433732313a20617070726f766520746f2063616c6c657200000000000000604082015260600190565b60208082526009908201526813585e081b1a5b5a5d60ba1b604082015260600190565b6020808252602c908201527f4552433732313a206f70657261746f7220717565727920666f72206e6f6e657860408201526b34b9ba32b73a103a37b5b2b760a11b606082015260800190565b60208082526010908201526f14185d5cd8589b194e881c185d5cd95960821b604082015260600190565b60208082526038908201527f4552433732313a20617070726f76652063616c6c6572206973206e6f74206f7760408201527f6e6572206e6f7220617070726f76656420666f7220616c6c0000000000000000606082015260800190565b6020808252602a908201527f4552433732313a2062616c616e636520717565727920666f7220746865207a65604082015269726f206164647265737360b01b606082015260800190565b60208082526029908201527f4552433732313a206f776e657220717565727920666f72206e6f6e657869737460408201526832b73a103a37b5b2b760b91b606082015260800190565b6020808252818101527f4552433732313a206d696e7420746f20746865207a65726f2061646472657373604082015260600190565b60208082526008908201526714d85b1948195b9960c21b604082015260600190565b6020808252602c908201527f4552433732313a20617070726f76656420717565727920666f72206e6f6e657860408201526b34b9ba32b73a103a37b5b2b760a11b606082015260800190565b6020808252818101527f4f776e61626c653a2063616c6c6572206973206e6f7420746865206f776e6572604082015260600190565b60208082526029908201527f4552433732313a207472616e73666572206f6620746f6b656e2074686174206960408201526839903737ba1037bbb760b91b606082015260800190565b6020808252602f908201527f4552433732314d657461646174613a2055524920717565727920666f72206e6f60408201526e3732bc34b9ba32b73a103a37b5b2b760891b606082015260800190565b60208082526011908201527056616c75652062656c6f7720707269636560781b604082015260600190565b60208082526021908201527f4552433732313a20617070726f76616c20746f2063757272656e74206f776e656040820152603960f91b606082015260800190565b60208082526010908201526f2a3930b739b332b9103330b4b632b21760811b604082015260600190565b60208082526031908201527f4552433732313a207472616e736665722063616c6c6572206973206e6f74206f6040820152701ddb995c881b9bdc88185c1c1c9bdd9959607a1b606082015260800190565b6020808252602c908201527f455243373231456e756d657261626c653a20676c6f62616c20696e646578206f60408201526b7574206f6620626f756e647360a01b606082015260800190565b602080825260089082015267115e18d95959195960c21b604082015260600190565b60208082526030908201527f4552433732314275726e61626c653a2063616c6c6572206973206e6f74206f7760408201526f1b995c881b9bdc88185c1c1c9bdd995960821b606082015260800190565b90815260200190565b60008219821115612617576126176126fc565b500190565b60008261262b5761262b612712565b500490565b600081600019048311821515161561264a5761264a6126fc565b500290565b600082821015612661576126616126fc565b500390565b60005b83811015612681578181015183820152602001612669565b838111156109a45750506000910152565b6002810460018216806126a657607f821691505b602082108114156126c757634e487b7160e01b600052602260045260246000fd5b50919050565b60006000198214156126e1576126e16126fc565b5060010190565b6000826126f7576126f7612712565b500690565b634e487b7160e01b600052601160045260246000fd5b634e487b7160e01b600052601260045260246000fd5b634e487b7160e01b600052604160045260246000fd5b6001600160e01b0319811681146109f557600080fdfea26469706673582212202f4792323304e54868ae2cd6283e334ef8870e8cf3a0a45b64a39f764a8f320764736f6c63430008000033",
  "immutableReferences": {},
  "source": "// SPDX-License-Identifier: MIT\r\npragma solidity ^0.8.0;\r\n\r\nimport \"./ERC721.sol\";\r\nimport \"./ERC721Enumerable.sol\";\r\nimport \"./ERC721Burnable.sol\";\r\nimport \"./Ownable.sol\";\r\nimport \"./SafeMath.sol\";\r\nimport \"./Counters.sol\";\r\n\r\ncontract SnowGlobe is ERC721Enumerable, Ownable, ERC721Burnable {\r\n    using SafeMath for uint256;\r\n    using Counters for Counters.Counter;\r\n\r\n    Counters.Counter private _tokenIdTracker;\r\n\r\n    uint256 public constant MAX_ELEMENTS = 7840;\r\n    uint256 public constant PRICE = 9 * 10**16;\r\n    uint256 public constant MAX_BY_MINT = 15;\r\n    address public constant creatorAddress = 0x101c53F64Fe67ff8D88c52bD48080CaF1F43aB41;\r\n    address public constant devAddress = 0x101c53F64Fe67ff8D88c52bD48080CaF1F43aB41;\r\n    string public baseTokenURI;\r\n    bool private _pause;\r\n\r\n    event JoinGang(uint256 indexed id);\r\n    constructor(string memory baseURI) ERC721(\"SNOW\", \"SG\") {\r\n        setBaseURI(baseURI);\r\n        pause(true);\r\n    }\r\n\r\n    modifier saleIsOpen {\r\n        require(_totalSupply() <= MAX_ELEMENTS, \"Sale end\");\r\n        if (_msgSender() != owner()) {\r\n            require(!_pause, \"Pausable: paused\");\r\n        }\r\n        _;\r\n    }\r\n    function _totalSupply() internal view returns (uint) {\r\n        return _tokenIdTracker.current();\r\n    }\r\n    function totalMint() public view returns (uint256) {\r\n        return _totalSupply();\r\n    }\r\n    function mint(address _to, uint256 _count) public payable saleIsOpen {\r\n        uint256 total = _totalSupply();\r\n        require(total + _count <= MAX_ELEMENTS, \"Max limit\");\r\n        require(total <= MAX_ELEMENTS, \"Sale end\");\r\n        require(_count <= MAX_BY_MINT, \"Exceeds number\");\r\n        require(msg.value >= price(_count), \"Value below price\");\r\n\r\n        for (uint256 i = 0; i < _count; i++) {\r\n            _mintAnElement(_to);\r\n        }\r\n    }\r\n    function _mintAnElement(address _to) private {\r\n        uint id = _totalSupply();\r\n        _tokenIdTracker.increment();\r\n        _safeMint(_to, id + 1);\r\n        emit JoinGang(id + 1);\r\n    }\r\n    function price(uint256 _count) public pure returns (uint256) {\r\n        return PRICE.mul(_count);\r\n    }\r\n\r\n    function _baseURI() internal view virtual override returns (string memory) {\r\n        return baseTokenURI;\r\n    }\r\n\r\n    function setBaseURI(string memory baseURI) public onlyOwner {\r\n        baseTokenURI = baseURI;\r\n    }\r\n\r\n    function walletOfOwner(address _owner) external view returns (uint256[] memory) {\r\n        uint256 tokenCount = balanceOf(_owner);\r\n\r\n        uint256[] memory tokensId = new uint256[](tokenCount);\r\n        for (uint256 i = 0; i < tokenCount; i++) {\r\n            tokensId[i] = tokenOfOwnerByIndex(_owner, i);\r\n        }\r\n\r\n        return tokensId;\r\n    }\r\n\r\n    function pause(bool val) public onlyOwner {\r\n        _pause = val;\r\n    }\r\n\r\n    function withdrawAll() public payable onlyOwner {\r\n        uint256 balance = address(this).balance;\r\n        require(balance > 0);\r\n        _widthdraw(devAddress, balance.mul(25).div(100));\r\n        _widthdraw(creatorAddress, address(this).balance);\r\n    }\r\n\r\n    function _widthdraw(address _address, uint256 _amount) private {\r\n        (bool success, ) = _address.call{value: _amount}(\"\");\r\n        require(success, \"Transfer failed.\");\r\n    }\r\n\r\n    function _beforeTokenTransfer(\r\n        address from,\r\n        address to,\r\n        uint256 tokenId\r\n    ) internal virtual override(ERC721, ERC721Enumerable) {\r\n        super._beforeTokenTransfer(from, to, tokenId);\r\n    }\r\n\r\n    function supportsInterface(bytes4 interfaceId) public view virtual override(ERC721, ERC721Enumerable) returns (bool) {\r\n        return super.supportsInterface(interfaceId);\r\n    }\r\n\r\n    function reserve(uint256 _count) public onlyOwner {\r\n        uint256 total = _totalSupply();\r\n        require(total + _count <= 100, \"Exceeded\");\r\n        for (uint256 i = 0; i < _count; i++) {\r\n            _mintAnElement(_msgSender());\r\n        }\r\n    }\r\n    \r\n}",
  "sourcePath": "D:\\AAAAAAA_JGI\\D\\Website\\Current_Work\\CryptoProject\\Sources\\DafeisContract\\contracts\\snowglobe.sol",
  "compiler": {
    "name": "solc",
    "version": "0.8.0+commit.c7dfd78e.Emscripten.clang"
  },
  "schemaVersion": "3.4.2",
  "updatedAt": "2021-09-08T15:19:49.447Z",
  "devdoc": {
    "kind": "dev",
    "methods": {
      "approve(address,uint256)": {
        "details": "See {IERC721-approve}."
      },
      "balanceOf(address)": {
        "details": "See {IERC721-balanceOf}."
      },
      "burn(uint256)": {
        "details": "Burns `tokenId`. See {ERC721-_burn}. Requirements: - The caller must own `tokenId` or be an approved operator."
      },
      "getApproved(uint256)": {
        "details": "See {IERC721-getApproved}."
      },
      "isApprovedForAll(address,address)": {
        "details": "See {IERC721-isApprovedForAll}."
      },
      "name()": {
        "details": "See {IERC721Metadata-name}."
      },
      "owner()": {
        "details": "Returns the address of the current owner."
      },
      "ownerOf(uint256)": {
        "details": "See {IERC721-ownerOf}."
      },
      "renounceOwnership()": {
        "details": "Leaves the contract without owner. It will not be possible to call `onlyOwner` functions anymore. Can only be called by the current owner. NOTE: Renouncing ownership will leave the contract without an owner, thereby removing any functionality that is only available to the owner."
      },
      "safeTransferFrom(address,address,uint256)": {
        "details": "See {IERC721-safeTransferFrom}."
      },
      "safeTransferFrom(address,address,uint256,bytes)": {
        "details": "See {IERC721-safeTransferFrom}."
      },
      "setApprovalForAll(address,bool)": {
        "details": "See {IERC721-setApprovalForAll}."
      },
      "symbol()": {
        "details": "See {IERC721Metadata-symbol}."
      },
      "tokenByIndex(uint256)": {
        "details": "See {IERC721Enumerable-tokenByIndex}."
      },
      "tokenOfOwnerByIndex(address,uint256)": {
        "details": "See {IERC721Enumerable-tokenOfOwnerByIndex}."
      },
      "tokenURI(uint256)": {
        "details": "See {IERC721Metadata-tokenURI}."
      },
      "totalSupply()": {
        "details": "See {IERC721Enumerable-totalSupply}."
      },
      "transferFrom(address,address,uint256)": {
        "details": "See {IERC721-transferFrom}."
      },
      "transferOwnership(address)": {
        "details": "Transfers ownership of the contract to a new account (`newOwner`). Can only be called by the current owner."
      }
    },
    "version": 1
  },
  "userdoc": {
    "kind": "user",
    "methods": {},
    "version": 1
  }
}